:100000000C9490010C94C1010C94C1010C94C10199
:100010000C94C1010C94C1010C94C1010C94C10158
:100020000C94C1010C94C1010C94C1010C94C10148
:100030000C94C1010C94C1010C94C1010C94C10138
:100040000C94C1010C94C1010C94C1010C94C10128
:100050000C94C1010C94C1010C94C1010C94971132
:100060000C94C1010C940B120C94E1110C94C1017D
:100070000C94C1010C94C1010C94C1010C94C101F8
:100080000C94C1010C94C1010C94C1010C94C101E8
:100090000C94C1010C94C1010C94C1010C94411247
:1000A0000C94C1010C94C1010C94C1010C94C101C8
:1000B0000C94C1010C94C1010C94C1010C94C101B8
:1000C0000C94C1010C94C1010C94C1010C94C101A8
:1000D0000C94C1010C94C1010C94C1010C94C10198
:1000E0000C94C1010C948E020C94FD0B0C94A00393
:1000F0000C94DF030C9482030C9488070C949902EF
:100100000C94BB020C945B0A0C9405090C94B70781
:100110000C9439030C946E030C9431030C94A302D9
:100120000C94FC080C945E090C94D4080C94D6032F
:100130000C9406030C9408090C94C3010C94A10AB6
:100140000C9448070C94C7080C9496030C94B102C5
:100150000C940E030C94550A0C94DD030C948A0243
:100160000C94B40C0C94580A0C94C2040C941B0408
:100170000C940C040C94B7020C9461090C94920238
:100180000C94370E0C9464090C944B030C945B078D
:100190000C949F020C94BF020C94A9020C942F049F
:1001A0000C94DE030C942D0C0C94AD020C948C0377
:1001B0000C94FF080C9441030C941D030C945503FC
:1001C0000C94BA070C941A0B0C9438070C94C207C1
:1001D0000C9478030C9439070C94BF070C94C9074E
:1001E0000C94C9020C945F030C9402090C949602BF
:1001F0000C9475040C9413030C9465130C94E80888
:100200000C94C5020C9478020C9473020C94C507EC
:100210000C9427030C943D0400000A0B02090C0DFA
:100220000E080703040100000000000000000000A9
:1002300000000000000000000000000000000000BE
:10024000000000001211100000000000000000007B
:10025000000000000000000000000000000000009E
:100260002200250028002B002E003100340002015E
:100270000000050108010B010000210024002700F7
:100280002A002D00300033000101000004010701A5
:100290000A0105050505070508080808020202020B
:1002A0000A0A080804040404010101010101010112
:1002B0000303030303030303040707070C0C0C0CDD
:1002C0000C0C0C0C020202020606060606060606C6
:1002D0000B0B0B0B0B0B0B0B010210202008081053
:1002E00020401020408002010201080402010102A6
:1002F000040810204080804020100804020180047F
:1003000002018040201008040201080402010102D9
:10031000040810204080010204081020408065136A
:1003200011241FBECFEFD1E2DEBFCDBF00E00CBF76
:1003300014E0A0E0B2E0E0EEF5E300E00BBF02C0A5
:1003400007900D92AC37B107D9F72AE0ACE7B4E0DB
:1003500001C01D92AC3CB207E1F711E0C0E9D1E069
:1003600000E006C021970109802FFE010E942D1791
:10037000CF38D10780E00807A9F70E948C140C94AD
:10038000EE1A0C9400000895CF92DF92EF92FF9244
:10039000CF93DF93EC016A017B01E889F98982E060
:1003A0008083C11481EED806E104F104A1F060E07D
:1003B00079E08DE390E0A70196010E94D8162150C4
:1003C00031094109510956954795379527952115CA
:1003D00080E1380798F0E889F989108260E874E8CC
:1003E0008EE190E0A70196010E94D81621503109B4
:1003F000410951095695479537952795EC85FD8517
:100400003083EE85FF852083188EEC89FD8986E098
:100410008083EA89FB89808180618083EA89FB8906
:10042000808188608083EA89FB89808180688083FD
:10043000EA89FB8980818F7D8083DF91CF91FF9056
:10044000EF90DF90CF90089590E0FC01E852FD4FCF
:1004500024918E569D4FFC018491882399F090E061
:10046000880F991FFC01E858FD4FA591B491FC013C
:10047000E25AFD4F859194918FB7F894EC91E22B5D
:10048000EC938FBF0895282F30E0F901E85EFD4F0F
:100490009491F901E852FD4F44912E563D4FF901D8
:1004A0002491222309F435C0992311F191509231FE
:1004B000F8F4E92FF0E08827EF59FD4F8F4F0C94A7
:1004C0002D179202960273028A028E027802990216
:1004D0009F02A302A902AD02B102B702BB027802D9
:1004E000BF02C502C902809180008F77809380008F
:1004F000E22FF0E0EE0FFF1FE25AFD4FA591B491FD
:100500008FB7F894EC91611148C040954E234C93FD
:100510008FBF0895809180008F7DE8CF809180000B
:10052000877FE4CF84B58F7784BDE2CF84B58F7D9C
:10053000FBCF8091B0008F778093B000D9CF8091AE
:10054000B0008F7DF9CF809190008F7780939000DD
:10055000CFCF809190008F7DF9CF80919000877FE1
:10056000F5CF8091A0008F778093A000C1CF8091BC
:10057000A0008F7DF9CF8091A000877FF5CF80917B
:1005800020018F7780932001B3CF809120018F7D50
:10059000F9CF80912001877FF5CF4E2BB8CF1F93E5
:1005A000CF93DF93182FEB010E942402209739F498
:1005B00060E0812FDF91CF911F910C944302CF3FD8
:1005C000D10511F461E0F5CFE12FF0E0E85EFD4FD9
:1005D000E491E150E23108F0B3C0F0E08827EC503C
:1005E000FD4F8F4F0C942D1706030E0313031D03AD
:1005F0002703A0033103390341034B0355035F0372
:100600006E037803A00382038C03960384B580688D
:1006100084BDC7BDDF91CF911F91089584B58062DD
:1006200084BDC8BDF7CF8091800080688093800032
:10063000D0938900C0938800EDCF809180008062C4
:1006400080938000D0938B00C0938A00E3CF809189
:100650008000886080938000D0938D00C0938C00D0
:10066000D9CF8091B00080688093B000C093B30070
:10067000D1CF8091B00080628093B000C093B4006D
:10068000C9CF80919000806880939000D0939900AA
:10069000C0939800BFCF80919000806280939000BB
:1006A000D0939B00C0939A00B5CF80919000886052
:1006B00080939000D0939D00C0939C00ABCF80911D
:1006C000A00080688093A0008091A0008F7B809321
:1006D000A000D093A900C093A8009CCF8091A00057
:1006E00080628093A000D093AB00C093AA0092CF09
:1006F0008091A00088608093A000D093AD00C0934B
:10070000AC0088CF80912001806880932001D09335
:100710002901C09328017ECF8091200180628093BF
:100720002001D0932B01C0932A0174CF8091200126
:10073000886080932001D0932D01C0932C016ACF53
:10074000C038D1050CF03ECF33CF3FB7F89480913D
:10075000CB049091CC04A091CD04B091CE0426B5E9
:10076000A89B05C02F3F19F00196A11DB11D3FBFE9
:10077000BA2FA92F982F8827BC01CD01620F711DB8
:10078000811D911D42E0660F771F881F991F4A95B2
:10079000D1F708952FB7F8946091C7047091C804F9
:1007A0008091C9049091CA042FBF08958091C50417
:1007B0009091C404891B990B089508950895AF92F0
:1007C000BF92CF92DF92EF92FF920F931F93CF933E
:1007D000DF936C017B018B01040F151FEB015E01A0
:1007E000AE18BF08C017D10759F06991D601ED9135
:1007F000FC910190F081E02DC6011995892B79F7C4
:10080000C501DF91CF911F910F91FF90EF90DF9085
:10081000CF90BF90AF900895FC01538D448D252F4C
:1008200030E0842F90E0821B930B541710F0CF968A
:10083000089501970895FC01918D828D981761F0BC
:10084000A28DAE0FBF2FB11D5D968C91928D9F5FD3
:100850009F73928F90E008958FEF9FEF0895FC01B2
:10086000918D828D981731F0828DE80FF11D858D65
:1008700090E008958FEF9FEF0895FC01918D228DF8
:10088000892F90E0805C9F4F821B91098F7399277D
:1008900008958BE495E00E943D0421E0892B09F442
:1008A00020E0822F0895FC01A48DA80FB92FB11D5F
:1008B000A35ABF4F2C91848D90E001968F73992796
:1008C000848FA689B7892C93A089B1898C91837074
:1008D00080648C93938D848D981306C00288F3896D
:1008E000E02D80818F7D80830895EF92FF920F939A
:1008F0001F93CF93DF93EC0181E0888F9B8D8C8DCC
:1009000098131AC0E889F989808185FF15C09FB7BF
:10091000F894EE89FF896083E889F9898081837082
:10092000806480839FBF81E090E0DF91CF911F9131
:100930000F91FF90EF900895F62E0B8D10E00F5F52
:100940001F4F0F731127E02E8C8D8E110CC00FB628
:1009500007FCFACFE889F989808185FFF5CFCE01C0
:100960000E945304F1CFEB8DEC0FFD2FF11DE35AE4
:10097000FF4FF0829FB7F8940B8FEA89FB89808143
:100980008062CFCFCF93DF93EC01888D8823B9F0BD
:10099000AA89BB89E889F9898C9185FD03C080818A
:1009A00086FD0DC00FB607FCF7CF8C9185FFF2CF07
:1009B000808185FFEDCFCE010E945304E9CFDF9106
:1009C000CF91089580E090E0892B29F00E9449049E
:1009D00081110E94000080E090E0892B49F080E0C6
:1009E00090E0892B29F00E94000081110E940000F4
:1009F00080E090E0892B49F080E090E0892B29F09D
:100A00000E94000081110E94000080E090E0892B8C
:100A100049F080E090E0892B29F00E9400008111CC
:100A20000C940000089520919D04260F3327331F56
:100A300021323105ECF420913905FC0190E080E091
:100A4000243069F082E00895A0919D042191AC01C9
:100A500043585B4FA40FB52FB11D2C9301968617F9
:100A600098F380919D04680F60939D0480E0089541
:100A700081E008951092390581E080931805109265
:100A8000130561E084E10E94430261E085E10E9478
:100A90004302E9EBF0E080818E7F808380818D7F4F
:100AA000808388E48093B80085E48093BC00089537
:100AB000CF93DF9391E090937C048823B9F0C091A9
:100AC000B800D091BA008091BC008A7B8093BC00B2
:100AD00060E084E10E94430260E085E10E944302FD
:100AE0000E943A05D093BA00C093B800DF91CF912D
:100AF0000895CF92DF92EF92FF920F931F93CF93BF
:100B0000DF93D82FC62F613208F098C00E94A5034A
:100B10006B017C018091390581116BC081E080936C
:100B20003905809318059FEF9093170510921605CD
:100B30009C0F909315058093140580911405DD0F8B
:100B4000D82BD093140580911305813009F078C01B
:100B5000109213050E94A5036B017C01809114057E
:100B60008093BB0080913B0590913C05A0913D0591
:100B7000B0913E05892B8A2B8B2BA1F00E94A503F7
:100B800000913B0510913C0520913D0530913E05BB
:100B90006C197D098E099F09061717072807390761
:100BA00008F448C08091BC0083FDD8CF85EC8093C9
:100BB000BC000E94A5036B017C0180913905813046
:100BC00009F440C0809116058C1710F4C0911605E9
:100BD000E3EFF4E0A9E1B5E080E08C1355C08C2F81
:100BE000DF91CF911F910F91FF90EF90DF90CF9009
:100BF000089580913B0590913C05A0913D05B091F1
:100C00003E05892B8A2B8B2B09F484CF0E94A503E8
:100C100000913B0510913C0520913D0530913E052A
:100C20006C197D098E099F090617170728073907D0
:100C300008F070CF80913A050E945805C0E0CFCFF0
:100C400085EEB5CF80913B0590913C05A0913D0587
:100C5000B0913E05892B8A2B8B2B09F4AECF0E94D5
:100C6000A50300913B0510913C0520913D05309175
:100C70003E056C197D098E099F090617170728077D
:100C8000390708F09ACFD6CF91919D938F5FA5CF6A
:100C90008F929F92AF92BF92CF92DF92EF92FF928C
:100CA0000F931F93CF93DF93D091F204D13208F0CA
:100CB000D7C0182FC091F1040E94A5036B017C01DD
:100CC0008091390581116BC082E0809339051093C2
:100CD00018058FEF8093170510921605D093150510
:100CE000A1EDB4E0E3EFF4E080E0D81391C01092FE
:100CF000140580911405CC0FC82BC0931405809166
:100D00001305813009F088C0109213050E94A503D5
:100D10006B017C01809114058093BB0080913B05A1
:100D200090913C05A0913D05B0913E05892B8A2B01
:100D30008B2BA1F00E94A50300913B0510913C056F
:100D400020913D0530913E056C197D098E099F0962
:100D5000061717072807390708F442C08091BC001E
:100D600083FDD8CF85EC8093BC000E94A5036B0166
:100D70007C0180913905823009F450C080911705BB
:100D80008F3F09F46FC080911705803209F46CC061
:100D900080911705803309F469C084E026C08091F2
:100DA0003B0590913C05A0913D05B0913E05892BF6
:100DB0008A2B8B2B09F484CF0E94A50380903B05DE
:100DC00090903C05A0903D05B0903E056C197D09C2
:100DD0008E099F0986169706A806B90608F070CFF7
:100DE00080913A050E94580585E01092D004109237
:100DF000F2041092CF04DF91CF911F910F91FF90D9
:100E0000EF90DF90CF90BF90AF909F908F9008951C
:100E10009D9191938F5F69CF85EEA5CF80913B0522
:100E200090913C05A0913D05B0913E05892B8A2B00
:100E30008B2B09F49ECF0E94A50300913B051091D6
:100E40003C0520913D0530913E056C197D098E09C8
:100E50009F09061717072807390708F08ACFC0CF60
:100E600081E0C3CF80E0C1CF82E0BFCF83E0BDCFC0
:100E70000895E091C4048091C504E81730F4F0E0CF
:100E8000E75EFA4F808190E008958FEF9FEF08951D
:100E90009091C4048091C5042FEF3FEF981748F458
:100EA000E92FF0E0E75EFA4F208130E09F5F9093FA
:100EB000C404C9010895CF92DF92EF92FF920F937D
:100EC0001F93CF93DF937C01CB018A012091CF0444
:100ED000222389F0EB016B01C40ED51ECC15DD0574
:100EE00069F06991D701ED91FC910190F081E02DBD
:100EF000C7011995F3CF642F0E941305C801DF9134
:100F0000CF911F910F91FF90EF90DF90CF900895B8
:100F1000CF93DF931F92CDB7DEB769832091CF04C3
:100F20002223F9F02091F204203258F021E030E041
:100F3000FC013383228390E080E00F90DF91CF911A
:100F400008958091D004E82FF0E0EF52FB4F998193
:100F500090838F5F8093D0048093F20481E090E0CF
:100F6000ECCF61E0CE0101960E941305F7CF90E02F
:100F700080E008958A579B4FFC018081089588E99D
:100F800092E0089589EB92E00895FC0186859785AB
:100F90000895EF92FF920F931F93CF93DF9300D0AA
:100FA0001F921F92CDB7DEB7643671054CF0FC017D
:100FB000EA57FB4F2081F12CE12C222309F452C087
:100FC000DA017B018C01BC01615E7D4FED91FC91EA
:100FD0000190F081E02DCA011995B801685E7D4F3E
:100FE0002FEFDB012C93F801E75EFD4F2EEF2083FE
:100FF00031968083319690833196292F280F209542
:1010000020833196E0821696FC9245E050E030E075
:1010100020E07C01B6E0EB0EF11CE416F50634F09E
:10102000A1912A0F311D4F5F5F4FF7CF7C01E8E0A0
:10103000EE0EF11C800F911FFC01E15EFD4F20952B
:101040002083F1E0EF16F2E0FF06CCF4D80112960F
:101050008D919C91DC01ED91FC910280F381E02D5A
:10106000A7011995C7010F900F900F900F900F9047
:10107000DF91CF911F910F91FF90EF9008958EE334
:1010800092E09A83898383E08B838AEC92E09D834C
:101090008C83D801ED91FC910190F081E02DAE019F
:1010A0004F5F5F4F67E070E0C8011995EE24EA9446
:1010B000FE2CD8CF0F931F93CF93DF9300D000D097
:1010C00000D01F92CDB7DEB78C0182E392E09A8305
:1010D00089831B821C821D821E821F8218861986AC
:1010E0001A86D801ED91FC910190F081E02DAE01BE
:1010F0004F5F5F4F6AE070E0C80119950E94CA0314
:10110000F80160877187828793872A960FB6F894D3
:10111000DEBF0FBECDBFDF91CF911F910F9108951C
:10112000CF92DF92EF92FF92DC011D921D921D92F1
:101130001C921397FB0130E020E0419150E0022E19
:1011400002C0440F551F0A94E2F7052E000C660BEF
:10115000770BCD90DD90ED90FC9013974C295D2995
:101160006E297F294D935D936D937C931397285F30
:101170003F4F2032310509F7FF90EF90DF90CF907D
:101180000895FC0140835183128213820895FB016C
:101190004081518162817381FC0142835383648366
:1011A000758384E090E008950F931F93CF93DF93AE
:1011B0008C01EC012696CE010E94C708D8011C962E
:1011C000ED91FC91CE01DF91CF911F910F91199478
:1011D000FB01DC0112964C91129713963C911397E8
:1011E00014962C91149715968C9140833183228309
:1011F000838384E090E0089583E093E0089586E09F
:1012000092E0089584E293E0089585E493E00895E0
:101210004F925F926F927F928F929F92AF92BF9206
:10122000EF92FF920F931F93CF93DF9300D01F9203
:10123000CDB7DEB77C018B01FB018191BF01F701C6
:101240008283CE0101960E94900889819A81AB81A8
:10125000BC814C015D01F5E08F0E911CA11CB11CFD
:10126000A8014C5F5F4FFA0125E030E02901712CA5
:10127000612C481459046A047B0428F46181619349
:101280002F5F3F4FF3CFF801E80FF91F1482F701EA
:101290005483438305960F900F900F900F90DF912A
:1012A000CF911F910F91FF90EF90BF90AF909F90C3
:1012B0008F907F906F905F904F90089588E593E0B6
:1012C000089589E793E008954F925F926F927F921D
:1012D0008F929F92AF92BF92CF92DF92EF92FF9246
:1012E0000F931F93CF93DF93CDB7DEB72C970FB635
:1012F000F894DEBF0FBECDBF7C018B01DB018C916A
:1013000090E0F7019383828311962C91922B938323
:1013100082836E5F7F4FCE0101960E949008898084
:101320009A80AB80BC8024013501F6E04F0E511C41
:10133000611C711C98012B5F3F4FF90186E090E022
:10134000AC0170E060E0441555056605770520F4B2
:10135000418141930196F4CFB4016A5F7F4FF80158
:10136000E80DF91D1582D70115963C932E9314971D
:10137000600F711FCE0105960E949008BAE08B0E97
:10138000911C4D805E806F807884C401092C000C14
:10139000AA0BBB0B5C016D01A40CB51CC61CD71CB1
:1013A000F801E80DF91DAF01401B510B70E060E042
:1013B0004A155B056C057D0538F42191AF0142505B
:1013C0005109DA012C93EFCF480C591CB801640D78
:1013D000751DFB0131971082C4010197800F911F89
:1013E000F70197838683CE0109960E9490089201A7
:1013F0002C5F3F4F89849A84AB84BC84A901032E5F
:10140000000C660B770B480D591D6A1D7B1DF801FA
:10141000E20FF31FCF01801B910BB0E0A0E0841717
:101420009507A607B70728F48191DF0112978C93DF
:10143000F1CFC901880D991DF801E80FF91FDF01EF
:1014400011971C9221503109020F131FD7011996D1
:101450001C930E9318972181428150E070E060E068
:10146000BA0155274427522B2081422B2381722B0E
:10147000F701428753876487758704962C960FB6C9
:10148000F894DEBF0FBECDBFDF91CF911F910F91BA
:10149000FF90EF90DF90CF90BF90AF909F908F9094
:1014A0007F906F905F904F90089582E993E0089548
:1014B00083EB93E00895FC01DB014C9150E070E078
:1014C00060E0428353836483758311968C911197F6
:1014D000582B428353836483758312968C911297A1
:1014E000682B428353836483758313968C9113977F
:1014F000782B428353836483758314964C9114979D
:1015000050E070E060E046835783608771871596EE
:101510008C911597582B4683578360877187169651
:101520008C911697682B468357836087718717962F
:101530008C91782B468357836087718788E090E091
:101540000895DC01FB0112968C911297808313960B
:101550008C911397818314968C911497828315969E
:101560008C911597838316968C9116978483179682
:101570008C911797858318968C9118978683199666
:101580008C91878388E090E00895CF93DF93FC01EE
:1015900001900020E9F73197AF01481B590BBC01BE
:1015A0008BE495E00E94DF03EC0142E050E061EC47
:1015B00073E08BE495E00E94DF038C0F9D1FDF91A9
:1015C000CF91089585ED8093BC0080913B0590916B
:1015D0003C05A0913D05B0913E050796A11DB11DAA
:1015E00023E0B695A795979587952A95D1F72091F1
:1015F000BC0024FD03C010923905089540913B05BD
:1016000050913C0560913D0570913E05452B462B60
:10161000472B69F30097A105B10541F02AE22A950D
:10162000F1F700C00197A109B109E1CF80913A0516
:101630000C9458054F925F926F927F928F929F9277
:10164000AF92BF92CF92DF92EF92FF920F931F93D0
:10165000CF93DF93EC017B018A81FB0180838B8137
:1016600081838C8182838D8183833496412C512C9C
:10167000320104E010E09F012F5F3F4FCF0102963F
:10168000DF011396A8010C5F1F4F8A809B80AC80FE
:10169000BD80481459046A047B04C8F4AA85BB853C
:1016A000A40FB51F14974C9111962C911197129677
:1016B0009C91129713968C9140832183928383830C
:1016C0008FEF481A580A680A780A3496D4CF4C85A6
:1016D00040834D85F90140832E85FC0120838F8551
:1016E0008C93F701E00FF11F412C512C3201AF0117
:1016F0009F012F5F3F4FCF010296DF0113960C5FD2
:101700001F4F8C849D84AE84BF84481459046A049E
:101710007B04D8F4CF01841B950BAC89BD89A80F3D
:10172000B91F3C9111962C91119712969C9112978A
:1017300013968C9130832183928383838FEF481A91
:10174000580A680A780A3496D3CF4E8940834F8965
:10175000F9014083288DFC012083898D8C93412CD5
:10176000512C32018E899F89A88DB98D4816590652
:101770006A067B0680F55201AA0CBB1CEC8DFD8D20
:10178000EA0DFB1DA081B181FD0101900020E9F768
:1017900031976F01CA1ADB0AA60170E060E0C70149
:1017A000800F911F0E94C1080C5F1F4F8C8D9D8D73
:1017B000A80EB91EF50160817181A601C701800FD5
:1017C000911F0E94C0190C0D1D1DFFEF4F1A5F0ADB
:1017D0006F0A7F0AC7CFC801DF91CF911F910F9188
:1017E000FF90EF90DF90CF90BF90AF909F908F9041
:1017F0007F906F905F904F900895EF92FF920F93BC
:101800001F93CF93DF938C017B01DC0112962C9107
:101810001297FB012193CF011396ED91FC91EF01FB
:1018200009900020E9F72197CE1BDF0BAE0170E095
:1018300060E00E94C108D80113966D917C91AE01C1
:10184000C70105960E94C019CE010596DF91CF9180
:101850001F910F91FF90EF900895CF92DF92EF923A
:10186000FF920F931F93CF93DF936C01EB01DC0189
:1018700012968C911297888313968C911397898373
:101880001496ED91FC91DF010D900020E9F78D0198
:10189000015011090E1B1F0BA80170E060E0CE0182
:1018A00002960E94C108F60164817581A801CE01EB
:1018B00006960E94C019C8010696F601A681B78156
:1018C000FD0101900020E9F731977F01EA1AFB0A38
:1018D000A70170E060E08C0F9D1F0E94C108065FA9
:1018E0001F4FD60116966D917C91A701CE01800FF6
:1018F000911F0E94C0190E0D1F1DF601A085B18514
:10190000FD0101900020E9F731977F01EA1AFB0AF7
:10191000A70170E060E0CE01800F911F0E94C10816
:101920000C5F1F4FD60118966D917C91A701CE01D7
:10193000800F911F0E94C019C701800F911FF601EF
:101940006285438534852585C80FD91F68834983FF
:101950003A832B830496DF91CF911F910F91FF90D3
:10196000EF90DF90CF9008952F923F924F925F9229
:101970006F927F928F929F92AF92BF92CF92DF929F
:10198000EF92FF920F931F93CF93DF93CDB7DEB704
:101990002E970FB6F894DEBF0FBECDBF8C016B0142
:1019A000DB018D909D90AD90BC90FC018281938174
:1019B000A481B58188159905AA05BB0570F4B40109
:1019C000660F771F660F771F828593850E94DF1849
:1019D000D8011B969C938E931A97F801828293826A
:1019E000A482B582C60140E050E0BA01A4E0EA2E2C
:1019F000F12C98012A5F3F4FDC011596EC91159769
:101A000016964C901697512C712C612C320155244E
:101A100044245E2A1496EC9114974E2A1796EC9162
:101A20007E2AD7011701E4E02E0E311C71010496C5
:101A3000F80182809380A480B580481559056A0515
:101A40007B05A8F446825782608671861497A2842B
:101A5000B384AA0DBB1DE4E0BE2EF90101900D92E6
:101A6000BA94E1F74F5F5F4F6F4F7F4FC5CF8485CB
:101A70009585A685B78584159505A605B70570F4E7
:101A8000B201660F771F660F771F848995890E94C0
:101A9000DF18D80155969C938E935497F80144868D
:101AA000558666867786C601820D931D412C512C82
:101AB00032011C019801205F3F4FDC0111966C91AF
:101AC000119712968C901297912CB12CA12C540145
:101AD00099248824962A6C91862A13966C91B62AAA
:101AE000B4E0EB0EF11CF8014485558566857785D9
:101AF0004416550666067706C0F4808A918AA28A43
:101B0000B38ABC0162197309A489B589A60FB71FEE
:101B100064E0F90101900D926A95E1F7BFEF4B1A6D
:101B20005B0A6B0A7B0A0496C8CF86899789A08DC9
:101B3000B18D88159905AA05BB0560F4B401660F3F
:101B4000771F848D958D0E94DF18D8015D969C9338
:101B50008E935C97F801868A978AA08EB18E412C6D
:101B6000512C32011801FAE12F0E311CF80186893F
:101B70009789A08DB18D481659066A067B0608F034
:101B80005CC0B6016E0D7F1DCE0101960E949008CB
:101B900097012C5F3F4F3E872D8789809A80AB80CD
:101BA000BC80C901032E000CAA0BBB0BAC01BD010C
:101BB000480D591D6A1D7B1D49875A876B877C8795
:101BC000F901EC0DFD1D9F012C193D09B90190E0B3
:101BD00080E029853A854B855C8562177307840709
:101BE000950728F42191DF0112972C93ECCFED8417
:101BF000FE84E80CF91CF601EE0DFF1D31971082F2
:101C00008D859E8501978C0D9D1DD8015B969C93BB
:101C10008E935A97C201880F991F5C96ED91FC91A3
:101C2000E80FF91FD1018D919C9191838083BFEFC3
:101C30004B1A5B0A6B0A7B0A99CFC7012E960FB627
:101C4000F894DEBF0FBECDBFDF91CF911F910F91F2
:101C5000FF90EF90DF90CF90BF90AF909F908F90CC
:101C60007F906F905F904F903F902F9008952F92AC
:101C70003F924F925F926F927F928F929F92AF921C
:101C8000BF92CF92DF92EF92FF920F931F93CF9369
:101C9000DF93CDB7DEB7A6970FB6F894DEBF0FBEC1
:101CA000CDBF8C010E94CA034B015C0198012557EE
:101CB0003B4F3E8B2D8BF90180819181A281B381B5
:101CC00075016401C81AD90AEA0AFB0AD701C601DC
:101CD000893F9A42A105B10510F03597108218018D
:101CE00034E8231A3BEF330AD1018D919C91892B63
:101CF00079F0F801E157FB4F80819181A281B38196
:101D000088159905AA05BB0518F4F1011182108206
:101D100098012C573B4F3A8B298BA80140585B4FB9
:101D20005C8B4B8BC8014896988F8F8BD801AA5734
:101D3000BB4FBC8FAB8FF801EC56FB4FFE8FED8F86
:101D4000215F3F4F38A32F8F42505109588B4F8747
:101D500086599B4F9A8F898F1996BAA3A9A3A5017B
:101D600094012C5E3F4F4F4F5F4F2BA33CA34DA3DD
:101D70005EA3F80184899589A689B789892B8A2B66
:101D80008B2BB9F5D80112968D919C91DC01ED91C8
:101D9000FC910284F385E02D19959C0197FF3DC0CD
:101DA000F801EA57FB4F8081882301F17801B9E7F8
:101DB000EB1ABBEFFB0AF70180819181A281B3810D
:101DC000A5019401281B390B4A0B5B0BDA01C901F1
:101DD000853C9940A105B10548F0C8010E945A0808
:101DE000D7018D929D92AD92BC92139790E080E0C6
:101DF000B6C10E94CA03681979098A099B09F801CA
:101E0000C488D588E688F788C616D706E806F90696
:101E100008F0B8CF8EEF9FEFA2C1A989BA898D9142
:101E20009C911197820F931F8D939C93F101408198
:101E3000518147305105F9F4A98DBA8D8D919C914E
:101E40001197AC014F5F5F4F4D935C93800F911FD3
:101E5000FC01208FAF85B8898D919C9111970197D6
:101E60008D939C93892B09F084CF88E090E0F10159
:101E7000918380837ECF4115510521F52F3F310598
:101E800081F481E090E091838083CBA0DCA0EDA081
:101E9000FEA0A9A1BAA1CD92DD92ED92FC9213977A
:101EA00068CF0E94CA03681979098A099B096938B1
:101EB00073418105910508F45CCFF801EA57FB4FA7
:101EC0001082A8CF4130510589F42E3F310519F415
:101ED00082E090E0CCCF11821082EB8DFC8D80816E
:101EE000811147CFC8010E945A0843CF42305105A3
:101EF00091F4AF85B8892D933C93E98DFA8D1182C9
:101F0000108283E090E0D1018D939C93E989FA8956
:101F1000318320832ECF4330510571F4322F222795
:101F2000AF85B8898D919C911197280F391F2D93FA
:101F30003C9384E090E09BCF4430510579F460E01D
:101F400071E00E9419178F3F910529F485E090E018
:101F5000918380830ECF118210820BCF45305105C3
:101F600069F4AB89BC892D933C9386E090E0918322
:101F70008083A989BA892D933C93FBCE46305105C5
:101F8000A1F4322F2227EB89FC8980819181280FCF
:101F9000391F3183208387E090E0D1018D939C939A
:101FA000EF85F889808191815DCF4830510509F036
:101FB000E0CE1182108260E071E00E9419178F3F1D
:101FC000910509F0D6CEAB89BC89ED91FC91309793
:101FD00009F0DEC0C8010E945A0886E292E09A83A6
:101FE00089831C821B8283EC93E09E838D83988778
:101FF0008F839A8789871B861C861D861E866801AB
:10200000B8EECB1ABBEFDB0A7801E6EBEE1AEBEF8A
:10201000FE0A412C22E0522E612C712CD601ED914A
:10202000FC913097A9F1848195819C838B83808179
:1020300091819E838D8382819381DC01ED91FC915E
:102040000480F581E02D199598878F83D601ED9155
:10205000FC9182819381DC01ED91FC910680F781F6
:10206000E02D19959A8789874B865C866D867E86DA
:10207000D601ED91FC9160857185D801ED91FC91BF
:102080000190F081E02DAE014F5F5F4FC8011995BF
:10209000B2E0CB0ED11CEC14FD0409F0BFCF412CF3
:1020A00092E0592E612C712CF701A081B18110971B
:1020B000E1F112968D919C9113979C838B831496DA
:1020C0008D919C9115979E838D83ED91FC91119735
:1020D0000480F581E02DCD01199598878F83D70174
:1020E0008D919C91DC01ED91FC910680F781E02DB2
:1020F00019959A8789874B865C866D867E86D8017E
:10210000ED91FC91C080D180F70180819181DC014B
:10211000ED91FC910280F381E02D1995AE014F5FA6
:102120005F4FBC01C801F6011995F2E0EF0EF11CFA
:10213000E214F30409F0B8CFF801EA57FB4F81E04D
:102140008083319680829182A282B382AD89BE89DA
:102150008D929D92AD92BC9213978FEF9FEFA696B2
:102160000FB6F894DEBF0FBECDBFDF91CF911F91A8
:102170000F91FF90EF90DF90CF90BF90AF909F9026
:102180008F907F906F905F904F903F902F90089529
:10219000EA30F10509F0A1C082E392E09A838983D5
:1021A0001B821C821D821E821F82188619861A8637
:1021B0000E94CA03F801C084D184E284F3849B01A5
:1021C000AC012C193D094E095F0969017A016F893B
:1021D000788DCE0101960E945B0AC701B60128EEF8
:1021E00033E040E050E00E94D81669017A019B017B
:1021F000AC018B819C81AD81BE818C0D9D1DAE1D7E
:10220000BF1D8B839C83AD83BE8360E472E48FE04B
:1022100090E00E940917CF80D884E984FA84DC0119
:10222000CB018C0D9D1DAE1DBF1D8F839887A98787
:10223000BA870E94CA03CF80D884E984FA8436E33F
:10224000D31A35E6E30A34ECF30A28EE33E040E033
:1022500050E00E94D81629013A019B01AC0160E4CC
:1022600072E48FE090E00E940917A7019601261BF7
:10227000370B480B590BCA01B9012B813C814D81A9
:102280005E81215031094109510969017A01C4185F
:10229000D508E608F7082601370120E03AEC4AE9BC
:1022A0005BE30E94D816420E531E641E751ED801B1
:1022B0001C964D925D926D927C921F97F801608BF7
:1022C000718B828B938B0E94CA03AD89BE896D93FB
:1022D0007D938D939C9313974CCDE630F10559F483
:1022E0006F89788D8D8D9E8D0E94B40C81E0EF8D6D
:1022F000F8A180833ECDEB30F10521F4AB8DBC8D90
:102300001C9237CDEF53FE4FEE0FFF1FE00FF11F72
:1023100080819181009709F42CCDDC01ED91FC9135
:102320000190F081E02D6F89788D199522CD1F9253
:102330000F920FB60F9211242F933F938F939F9379
:10234000AF93BF938091C7049091C804A091C90432
:10235000B091CA043091C60423E0230F2D3758F5FD
:102360000196A11DB11D2093C6048093C7049093CC
:10237000C804A093C904B093CA048091CB0490917F
:10238000CC04A091CD04B091CE040196A11DB11D45
:102390008093CB049093CC04A093CD04B093CE044F
:1023A000BF91AF919F918F913F912F910F900FBE51
:1023B0000F901F90189526E8230F0296A11DB11DBE
:1023C000D2CF1F920F920FB60F9211240BB60F921D
:1023D0002F933F934F935F936F937F938F939F932D
:1023E000AF93BF93EF93FF938BE495E00E94530468
:1023F000FF91EF91BF91AF919F918F917F916F91DD
:102400005F914F913F912F910F900BBE0F900FBE98
:102410000F901F9018951F920F920FB60F921124D4
:102420000BB60F922F938F939F93EF93FF93E091AF
:102430005B05F0915C058081E0916105F09162059A
:1024400082FD1DC09081809164058F5F8F73209104
:102450006505821741F0E0916405F0E0E55BFA4F15
:10246000958F80936405FF91EF919F918F912F91AC
:102470000F900BBE0F900FBE0F901F90189580818C
:10248000F2CF1F920F920FB60F9211240BB60F923C
:102490002F933F934F935F936F937F938F939F936C
:1024A000AF93BF93EF93FF938091B900887F8036FD
:1024B00009F44DC008F040C0883209F4A9C028F5DD
:1024C000803109F49DC0C8F4882309F4FBC088302A
:1024D00009F496C0FF91EF91BF91AF919F918F91B9
:1024E0007F916F915F914F913F912F910F900BBE14
:1024F0000F900FBE0F901F901895883109F488C077
:10250000803241F78093170514C0803409F49DC0D0
:1025100040F48033B9F38833E9F68093170585ECEE
:10252000B0C0803509F485C0883509F496C0883478
:1025300089F60E94E20ACECF883909F48CC038F5BA
:10254000883729F050F4883611F0803719F683E087
:10255000809339051092BF0457C0883809F47BC0B6
:10256000803919F0803809F0B5CF8091BF048032EE
:1025700008F071C0E091BF0481E08E0F8093BF042A
:102580008091BB00F0E0E156FB4F80833DC0803B73
:1025900039F0E0F4803A09F479C0883A09F09ACF2A
:1025A00084E08093390510929E0410929D04E0917E
:1025B000C204F091C304199580919D0481110FC04C
:1025C00081E080939D0410927D0409C0803C09F451
:1025D000A6CF883C09F4A3CF883B09F07BCFE091DC
:1025E0009E0481E08E0F80939E04F0E0E358FB4F41
:1025F00080818093BB0090919E0480919D0429C0AE
:10260000809114058093BB0085EC8093BC0062CF61
:102610009091160580911505981758F5E0911605CB
:1026200081E08E0F80931605F0E0ED50FB4F808126
:10263000E9CFE091160581E08E0F80931605809119
:10264000BB00F0E0ED50FB4F808390911605809128
:1026500015059817C8F285E8D8CFE091160581E0F6
:102660008E0F809316058091BB00F0E0ED50FB4F7C
:1026700080838091180581115CCF81E080931305E0
:1026800084EA8093BC001092390524CF85EC8093B6
:10269000BC00109239058091BF04803230F4E09183
:1026A000BF04F0E0E156FB4F10826091BF0470E080
:1026B000E091C004F091C1048FE994E01995109263
:1026C000BF0408CF1092170534CFEBE4F5E0138276
:1026D000128248EE53E060E070E0448355836683E5
:1026E00077838AE492E09183808385EC90E09587FC
:1026F000848784EC90E09787868780EC90E0918BCC
:10270000808B81EC90E0938B828B82EC90E0958BB8
:10271000848B86EC90E0978B868B118E128E138EB5
:10272000148EAFE3B5E013961C921E921297149686
:102730004D935D936D937C9317978CE592E08D9309
:102740009C93A6E1B6E08AE792E011969C938E9363
:102750001396FC93EE93129740E051EE60E070E028
:1027600014964D935D936D937C93179718961D92D5
:102770001D921D921C921B971C961D921D921D92DC
:102780001C921F9750961D921D921D921C9253975A
:1027900054961D921D921D921C92579780E092E0D4
:1027A000EEE2F6E0DF019C011D9221503040E1F79E
:1027B000EEE2F8E0DF019C011D9221503040E1F78C
:1027C00082E3EEE2FAE0DF01282F1D922A95E9F775
:1027D000E0E6FAE0DF011D928A95E9F71092930A8C
:1027E0001092920A1092950A1092940A1092970AE7
:1027F0001092960A1092990A1092980A10929B0AC7
:1028000010929A0A10929C0A10929D0A10929E0AA7
:1028100010929F0A1092A00A1092A10A1092A20A86
:102820001092A30A1092A40A1092A50A1092A60A66
:102830001092A70A1092A80A1092A90A8EE692E0B6
:102840009093AB0A8093AA0A1092AC0A1092AD0A38
:102850001092AE0A1092AF0A1092B00A1092B10A0A
:102860001092B20A1092B30A1092B50A1092B40AEA
:102870001092B60A1092B70A1092B80A1092B90ACA
:102880001092BA0A1092BB0A1092BC0A1092BD0AAA
:102890001092BF0A1092BE0A1092C00A1092C10A8A
:1028A0001092C20A1092C30A1092C50A1092C40A6A
:1028B0001092C70A1092C60AA2E0B6E080E992E040
:1028C00011969C938E9312961D921D921D921C92AE
:1028D0001597E8EFF5E024EC33E031832083B383F0
:1028E000A28311861086E8EEF5E024E832E0318319
:1028F000208397838683108611861286138683EC45
:1029000091E09587848781E090E09787868784EEC1
:1029100093E0958384830895789484B5826084BD20
:1029200084B5816084BD85B5826085BD85B58160D3
:1029300085BD80916E00816080936E001092810051
:10294000809181008260809381008091810081600C
:1029500080938100809180008160809380008091CD
:10296000B10084608093B1008091B0008160809359
:10297000B0008091910082608093910080919100DD
:10298000816080939100809190008160809390009D
:102990008091A10082608093A1008091A10081605C
:1029A0008093A1008091A00081608093A00080911D
:1029B00021018260809321018091210181608093B7
:1029C00021018091200181608093200180917A0013
:1029D000846080937A0080917A00826080937A008C
:1029E00080917A00816080937A0080917A0080687B
:1029F00080937A001092C10040E051EE60E070E0F8
:102A00008BE495E00E94C4011092C4041092C504A6
:102A10001092D0041092F2040E943A058DED93E0DA
:102A20009093C3048093C2048EED93E09093C1040D
:102A30008093C00482E08093B80086E00E94240264
:102A400082E00E94240283E00E94240287E00E9428
:102A5000240284E00E94240285E00E94240261E0B6
:102A600086E00E94430261E087E00E94430261E049
:102A700082E00E94430261E084E00E9443024091B0
:102A80001A0650911B0660911C0670911D068091DC
:102A90001806909119060E94C4011092930A109290
:102AA000920A1092950A1092940A1092990A109222
:102AB000980A1092970A1092960AEEE2FAE090E0D5
:102AC00080E021913191232B09F0A9C0FC01EE0F88
:102AD000FF1FE25DF54F28EF35E0318320838358F7
:102AE0009F4F9093FD058093FC0586E196E09093BF
:102AF000FF058093FE05E0E6FAE090E080E021919A
:102B00003191232B09F091C0FC01EE0FFF1FE05A19
:102B1000F54F28EE35E0318320838C599F4F9093F9
:102B2000EB058093EA05FF24F39490E7E92E01E09A
:102B300010E026E3D22E86E196E00E94370EF09256
:102B4000CF04E092F1041092D0041092F204B80184
:102B50000090140602C0660F771F0A94E2F78FE315
:102B600095E00E94880781E00E944806882309F4C6
:102B700062C08AE094E00E94C50A80910C069091A0
:102B80000D06A0910E06B0910F0680930406909357
:102B90000506A0930606B09307068091FE05909166
:102BA000FF056091FC057091FD05DC01ED91FC9144
:102BB0000190F081E02D42E056E0199570E060E070
:102BC00085E00E94CF0270E060E083E00E94CF02C7
:102BD0000E94A5032B013C0184E6882E912CA12C98
:102BE000B12C0E94A5036419750986099709683EEE
:102BF000734081059105A8F3B1E08B1A9108A108F3
:102C0000B10828EE420E23E0521E611C711C811493
:102C10009104A104B10429F70E94E2048CCF01962B
:102C20008931910509F04DCF66CF01968931910523
:102C300009F065CF78CFF092CF04D092F1041092D2
:102C4000D0041092F2046DE08FE395E00E948807B3
:102C500081E00E944806882319F08CE294E08BCF33
:102C600061E086E30E9479051092C4048093C50454
:102C7000811103C086E594E07ECF8FE395E00E944A
:102C800048079093110680931006F092CF0410929B
:102C9000D0041092F2046CE08FE395E00E94880764
:102CA00081E00E9448068111D8CF61E086E30E944E
:102CB00079051092C4048093C5048823D9F28FE368
:102CC00095E00E944807D82F20E0C22FD09313062A
:102CD000C09312066091100670911106622B782B3A
:102CE0007F70072E000C880B990B0E94BD172CEDEE
:102CF0003FE049EC5AE30E94721820910806309197
:102D0000090640910A0650910B060E9449174B0193
:102D10005C0120E030E0A9010E94B61787FD2CC0BD
:102D200080920C0690920D06A0920E06B0920F06AD
:102D300080900C0690900D06A0900E06B0900F06A5
:102D400020ED3FE049E450E4C501B4010E946D1854
:102D500018160CF012CF24EE3FE049EC50E4C50108
:102D6000B4010E94491760930C0670930D0680937E
:102D70000E0690930F0601CF24EE3FE049EC50E49D
:102D8000C501B4010E944A1760930C0670930D06AA
:102D900080930E0690930F06CBCF0E94FA16A59F44
:102DA000900DB49F900DA49F800D911D1124089546
:102DB000A1E21A2EAA1BBB1BFD010DC0AA1FBB1F3F
:102DC000EE1FFF1FA217B307E407F50720F0A21BB1
:102DD000B30BE40BF50B661F771F881F991F1A941E
:102DE00069F760957095809590959B01AC01BD0148
:102DF000CF010895A29FB001B39FC001A39F700DA2
:102E0000811D1124911DB29F700D811D1124911DF2
:102E10000895DB018F939F930E94CD16BF91AF91D0
:102E2000A29F800D911DA39F900DB29F900D112424
:102E3000089597FB072E16F4009407D077FD09D06C
:102E40000E94351707FC05D03EF4909581959F4F61
:102E50000895709561957F4F0895EE0FFF1F881FAD
:102E60008BBF0790F691E02D1994AA1BBB1B51E173
:102E700007C0AA1FBB1FA617B70710F0A61BB70BEA
:102E8000881F991F5A95A9F780959095BC01CD018F
:102E900008955058BB27AA270E9461170C94331835
:102EA0000E94251838F00E942C1820F039F49F3F1A
:102EB00019F426F40C9422180EF4E095E7FB0C9418
:102EC0001C18E92F0E94441858F3BA1762077307B9
:102ED0008407950720F079F4A6F50C9466180EF493
:102EE000E0950B2EBA2FA02D0B01B90190010C011A
:102EF000CA01A0011124FF27591B99F0593F50F432
:102F0000503E68F11A16F040A22F232F342F442789
:102F1000585FF3CF469537952795A795F040539581
:102F2000C9F77EF41F16BA0B620B730B840BBAF051
:102F30009150A1F0FF0FBB1F661F771F881FC2F7BC
:102F40000EC0BA0F621F731F841F48F487957795D0
:102F50006795B795F7959E3F08F0B0CF9395880F8A
:102F600008F09927EE0F9795879508950E94F81716
:102F700008F481E00895E89409C097FB3EF4909529
:102F80008095709561957F4F8F4F9F4F9923A9F042
:102F9000F92F96E9BB279395F695879577956795D1
:102FA000B795F111F8CFFAF4BB0F11F460FF1BC015
:102FB0006F5F7F4F8F4F9F4F16C0882311F096E9A8
:102FC00011C0772321F09EE8872F762F05C0662356
:102FD00071F096E8862F70E060E02AF09A95660F0F
:102FE000771F881FDAF7880F9695879597F90895C8
:102FF000990F0008550FAA0BE0E8FEEF161617060A
:10300000E807F907C0F012161306E407F50798F071
:10301000621B730B840B950B39F40A2661F0232B8A
:10302000242B252B21F408950A2609F4A140A69506
:103030008FEF811D811D089597F99F6780E870E0EB
:1030400060E008959FEF80EC089500240A9416161E
:10305000170618060906089500240A941216130686
:10306000140605060895092E0394000C11F4882314
:1030700052F0BB0F40F4BF2B11F460FF04C06F5F30
:103080007F4F8F4F9F4F089557FD9058440F551F06
:1030900059F05F3F71F04795880F97FB991F61F0DA
:1030A0009F3F79F087950895121613061406551F51
:1030B000F2CF4695F1DF08C0161617061806991FBD
:1030C000F1CF86957105610508940895E894BB27B2
:1030D00066277727CB0197F908950E94F81708F41F
:1030E0008FEF08950E9485180C9433180E942518BC
:1030F00038F00E942C1820F0952311F00C941C1825
:103100000C94221811240C9467180E94441870F330
:10311000959FC1F3950F50E0551F629FF001729F7C
:10312000BB27F00DB11D639FAA27F00DB11DAA1F8B
:10313000649F6627B00DA11D661F829F2227B00DD8
:10314000A11D621F739FB00DA11D621F839FA00D63
:10315000611D221F749F3327A00D611D231F849FB3
:10316000600D211D822F762F6A2F11249F5750400A
:103170009AF0F1F088234AF0EE0FFF1FBB1F661F85
:10318000771F881F91505040A9F79E3F510580F04E
:103190000C941C180C9467185F3FE4F3983ED4F32A
:1031A000869577956795B795F795E7959F5FC1F7F2
:1031B000FE2B880F911D9695879597F908954F924C
:1031C0005F926F927F928F929F92AF92BF92CF92B7
:1031D000DF92EF92FF920F931F93CF93DF938C01B7
:1031E000009799F4CB01DF91CF911F910F91FF9040
:1031F000EF90DF90CF90BF90AF909F908F907F9097
:103200006F905F904F900C94C919FC01E60FF71F67
:103210009C0122503109E217F30708F4AEC0D9012E
:10322000CD91DC911197C617D70720F1C530D10594
:1032300078F0CE0104978617970750F0C61BD70B7E
:103240002297C193D1936D937C93CF010E94651A0D
:10325000C801DF91CF911F910F91FF90EF90DF9008
:10326000CF90BF90AF909F908F907F906F905F9026
:103270004F9008955B01AC1ABD0A4C018C0E9D1E47
:10328000A091CA0AB091CB0A512C412CF12CE12C0F
:10329000109731F58091C80A9091C90A881599054F
:1032A00009F05CC04616570608F058C0809100022D
:1032B00090910102009741F48DB79EB740910402AE
:1032C00050910502841B950BE817F90708F055C0CB
:1032D000F093C90AE093C80AF90171836083B8CFFB
:1032E0008D919C91119712966C90129713967C90E9
:1032F0001397A815B90559F56C0142E0C40ED11C0D
:10330000CA14DB0420F1AC014A195B09DA011296F8
:10331000159780F06282738251834083D9016D9347
:103320007C93E114F10471F0D7011396FC93EE93B2
:1033300012978ECF22968C0F9D1FF9019183808367
:10334000F301EFCFF093CB0AE093CA0A81CF48167E
:10335000590608F42C017D01D3019ACFCB010E94BC
:10336000C9197C01009749F0AE01B8010E94C0194B
:10337000C8010E94651A87016BCF10E000E068CF9A
:10338000FB01DC0102C001900D9241505040D8F782
:1033900008950F931F93CF93DF938230910510F41C
:1033A00082E090E0E091CA0AF091CB0A30E020E0A0
:1033B000B0E0A0E0309799F42115310509F44AC036
:1033C000281B390B24303105D8F58A819B81611582
:1033D000710589F1FB0193838283FE0111C0408155
:1033E00051810281138148175907E0F048175907A6
:1033F00099F4109761F012960C93129713961C9300
:103400003296CF01DF91CF911F910F9108950093D4
:10341000CA0A1093CB0AF4CF2115310551F0421797
:10342000530738F0A901DB019A01BD01DF01F80162
:10343000C1CFEF01F9CF9093CB0A8093CA0ACDCFC9
:10344000FE01E20FF31F81939193225031093983DA
:103450002883D7CF2091C80A3091C90A232B41F481
:1034600020910202309103023093C90A2093C80AC6
:1034700020910002309101022115310541F42DB750
:103480003EB74091040250910502241B350BE09198
:10349000C80AF091C90AE217F307A0F42E1B3F0BEC
:1034A0002817390778F0AC014E5F5F4F24173507B6
:1034B00048F04E0F5F1F5093C90A4093C80A81938A
:1034C00091939FCFF0E0E0E09CCFCF93DF93009704
:1034D000E9F0FC01329713821282A091CA0AB091DE
:1034E000CB0AED0130E020E01097A1F4208131817A
:1034F000820F931F2091C80A3091C90A28173907F3
:1035000009F061C0F093C90AE093C80ADF91CF9136
:103510000895EA01CE17DF07E8F54A815B819E0135
:1035200041155105B1F7E901FB83EA8349915991AE
:10353000C40FD51FEC17FD0761F4808191810296BD
:10354000840F951FE90199838883828193819B83EE
:103550008A83F0E0E0E012968D919C91139700979A
:10356000B9F52D913C911197CD010296820F931FD1
:103570002091C80A3091C90A2817390739F63097BF
:1035800051F51092CB0A1092CA0AB093C90AA093BF
:10359000C80ABCCFD383C28340815181840F951F59
:1035A000C817D90761F44E5F5F4F88819981480F32
:1035B000591F518340838A819B8193838283211584
:1035C000310509F0B0CFF093CB0AE093CA0A9ECF41
:1035D000FD01DC01C0CF13821282D7CFF894FFCF58
:1035E0000000CC0A8000726F7373657269616C5F52
:1035F0006D7367732F526571756573745061726175
:103600006D00000000002D0C640961095E090000D6
:103610000000A10A5B0A580A550A00000000FD0BD1
:10362000080905090209000000007504DF030C0405
:10363000C2043D041B042F040000000088075B0740
:10364000B7073807D60348073907000000001A0BF0
:10365000B40CFF08FC0800000000C907370EBA07C9
:1036600000000000D408C507C207BF070000000023
:10367000E808C708C207BF07373366636266343697
:103680006234393139316536373239303865353061
:103690003834326138336434007374645F6D736737
:1036A000732F466C6F61743332004D6573736167BD
:1036B000652066726F6D206465766963652064724B
:1036C0006F707065643A206D657373616765206C17
:1036D0006172676572207468616E206275666665E6
:1036E000722E003966306539386264613635393892
:1036F0003139383664646635336166613761343038
:1037000065343900313161626437333163323539C0
:103710003333323631636436313833626431326484
:103720003632393500726F7373657269616C5F6D23
:103730007367732F4C6F67003061643531663838BA
:103740006663343438393266386331303638343071
:10375000373736343630303500726F7373657269BF
:10376000616C5F6D7367732F546F706963496E6628
:103770006F0063643731363663373463353532630F
:103780003331316662636332666535613762633255
:103790003839007374645F6D7367732F54696D6596
:1037A000000D0A002F6472697665747261696E2F6C
:1037B0006C6566745F776865656C706F645F616E79
:1037C000676C65002F61726475696E6F2F6C65663A
:1037D000745F776865656C706F645F616E676C6558
:1037E0005F736574706F696E74004572726F7220DA
:1037F00073657474696E67206D756C7469706C653F
:10380000786572206368616E6E656C004572726FD8
:1038100072207374617274696E67207472616E7362
:103820006D697373696F6E20746F2074686520739F
:10383000656E736F72004572726F72207265636598
:103840006976696E6720646174612066726F6D20AD
:0C3850007468652073656E736F72000071
:00000001FF
